S3150800000018550020450100084D0100084F01000859
S3150800001051010008530100085501000800000000BE
S31508000020000000000000000000000000ED37000896
S315080000305901000800000000713600080D3B000851
S315080000405F0100085F0100085F0100085F01000802
S315080000505F0100085F0100085F0100085F010008F2
S315080000605F0100085F0100085F0100085F010008E2
S315080000705F0100085F0100085F0100085F010008D2
S315080000805F0100085F0100085F0100085F010008C2
S315080000905F0100085F0100085F0100085F010008B2
S315080000A05F0100085F0100085F0100085F010008A2
S315080000B05F0100085F0100085F0100085F01000892
S315080000C05F0100085F0100085F0100085F01000882
S315080000D05F0100085F0100085F0100085F01000872
S315080000E05F0100085F0100085F0100085F01000862
S315080000F05F0100085F0100085F0100085F01000852
S315080001005F0100085F0100085F0100085F01000841
S315080001105F0100085F0100085F0100085F01000831
S315080001205F0100085F0100085F0100085F01000821
S31508000130DFF80CD000F00EFD00480047C941000862
S31508000140185500200648804706480047FEE7FEE7A0
S31508000150FEE7FEE7FEE7FEE7FEE7FEE7FEE7FEE769
S31508000160993B00083101000840EA01039B0703D0C8
S3150800017009E008C9121F08C0042AFAD203E011F8D8
S31508000180013B00F8013B521EF9D27047D2B201E09A
S3150800019000F8012B491EFBD270470022F6E710B57E
S315080001A013460A4604461946FFF7F0FF204610BDD7
S315080001B030B505462A460B4612F8010B13F8014BD3
S315080001C008B1A042F8D01CB1002802D06D1CF1E796
S315080001D0284630BD421C10F8011B0029FBD1801AA5
S315080001E07047F0B480EA0102D40F4200B2EB410F27
S315080001F002D20246084611464A0042D0C30DDDB275
S31508000200C1F3C752AD1A202D35DAC1F3160141F4F0
S31508000210000204B15242C5F1200602FA06F12A414B
S315080002201044B3EBD05F23D0C4B1012DA0EBC3506B
S3150800023009DCF0BC4FF0004202EAC352DBB200F51B
S31508000240000000F09DBB400000F1807000EBC35039
S31508000250A0F1807040EAD170490009E0490841EAF6
S31508000260C071A0EBC35000F50000400800EBC35076
S31508000270F0BC00F07CBB6142012202EB4101001B8D
S31508000280F6E7F0BC704781F00041AAE780F000402D
S31508000290A7E780EA010210B502F00043400022D029
S315080002A04A001FD0010E01EB1261C0F35600C2F3DB
S315080002B0560240F4000042F40002A0FB02200004AB
S315080002C07F39140400D0401C50EA124001D4400083
S315080002D0491EC2B20C0604EBD010401C4008802A06
S315080002E002D003E0002010BD20F00100002900DA4A
S315080002F00020184310BD30B480EA010202F0004520
S3150800030030F0004221F0004013D090B1C30DD40D57
S31508000310C2F31601C0F31600E41A41F4000140F4D2
S3150800032000027D34914201D3641C00E04900002C90
S3150800033002DA30BC002070474FF4000000239142D7
S3150800034001D3891A034340084FEA4101F7D151B155
S31508000350914202D14FF0004105E002D24FF001016F
S3150800036001E06FF0010103EBC450284430BC00F0F3
S31508000370FEBA2DE9FE4F804681EA0300C00F0C46FF
S31508000380009021F0004123F00045B8EB0200A94196
S3150800039005D24046214690461C460B46024623F0A7
S315080003A00040104347D0270DC7F30A00C3F30A518C
S315080003B00290401A019040286BDAC3F3130040F408
S315080003C0801B0098924620B10023D2EB030A63EB08
S315080003D00B0B01985946C0F14002504600F096FAB8
S315080003E006460D4650465946019A00F0AEFA10EBFD
S315080003F008006141002487EA115284EAE7731A4328
S3150800040040D0009A62B3019A012A4FEA075215DCD6
S31508000410001B61EB02014FF0004202EA0752CDE9E8
S315080004200042001C41F5801132462B4600F014FBB1
S3150800043003B0BDE8F08F40462146F9E7001B61EBA3
S315080004400201001C41F5801300185B412018A2F533
S31508000450001747EB030140EAD570B6196D4111E064
S315080004606D084FEA360645EAC0754FEA0752001B83
S3150800047061EB0201001C41F5801149084FEA300082
S315080004800019514132462B4603B0BDE8F04F00F043
S31508000490D4BA0098012240000023D0EB020263EB95
S315080004A0E073009821464FEAE074B8EB000061EB70
S315080004B00401E9E783F000435BE781F0004158E770
S315080004C02DE9FE4F81EA030404F0004421F00041BF
S315080004D000944FF0000B23F0004350EA01045ED06D
S315080004E052EA03045BD0C3F30A54C1F30A552C44F9
S315080004F0A4F2F3340194A0FB0254C1F3130141F4AE
S315080005008011C3F3130343F4801301FB024400FB79
S31508000510034E840A970A44EA815447EA8357A4FBA0
S31508000520076802958D0A05FB07854FEA932C04FB9D
S315080005300C542705029D4FEA065847EA1637B5EBCD
S3150800054008056EEB070C870E920E47EA811742EAFA
S315080005508312A7FB0201B6EB0B0164EB00042B0D1B
S3150800056043EA0C335E1844EB1C50DA465146E7FB67
S315080005700201C5F313044FEA0B3343EA14534FEA57
S315080005800432019C43EA0603A4F10C040294009C7D
S31508000590CDE900B400F060FA03B0BDE8F08F0020A2
S315080005A00146F9E72DE9F04D81EA030404F0004B12
S315080005B021F0004514464FF0000A23F0004150EAA6
S315080005C0050220D054EA01021DD0C5F30A57024697
S315080005D0C5F31303C1F31300C1F30A5640F480159B
S315080005E043F48013A7EB0608101BD64608F2FD381D
S315080005F073EB050002D308F1010801E092185B418C
S31508000600B8F1000F03DA00200146BDE8F08D00209E
S315080006104FF48011064684460EE0171B73EB050758
S3150800062005D3121B63EB050306434CEA010C490884
S315080006304FEA300092185B4150EA0107EDD152EAC1
S31508000640030012D082EA040083EA0501084305D0B4
S31508000650101BAB4106D20122002306E000224FF010
S31508000660004302E06FF0010253101AEB06004CEB50
S31508000670085110EB0A0041EB0B01BDE8F04D00F004
S31508000680DCB9002801DBC0F10040002901DBC1F11B
S315080006900041814201D80120704700207047002898
S315080006A001DBC0F10040002901DBC1F100418142B4
S315080006B001D20120704700207047002801DBC0F1F5
S315080006C00040002901DBC1F10041814201D301202C
S315080006D0704700207047002801DBC0F10040002960
S315080006E001DBC1F10041814201D901207047002098
S315080006F07047002801DBC0F10040002901DBC1F189
S315080007000041814201D1012070470020704730B571
S31508000710041E71F1000404DB4FF00044404264EB10
S315080007200101141E73F1000405DB1C464FF000435B
S31508000730524263EB0403101A8B4101D2012030BDEB
S31508000740002030BD30B5041E71F1000404DB4FF003
S315080007500044404264EB0101141E73F1000405DBFA
S315080007601C464FF00043524263EB0403801A99413A
S3150800077001D2012030BD002030BDC10F80EAE070F3
S315080007800844CA079623002100F0FAB896230022E7
S31508000790114600F0F5B80EB540F23341029100213A
S315080007A0CDE900110A460B4600F056F903B000BD24
S315080007B000F0004220F00040C10DC0F3160040F4DE
S315080007C000007F2901DA00207047962903DCC1F171
S315080007D09601C84001E096398840002AF4D0404284
S315080007E0704770B5C1F30A5201F000450024C1F301
S315080007F0130140F2FF3341F480119A4201DA0020D6
S3150800080070BD40F233439A42A2F2334203DC5242AD
S3150800081000F08BF800E090402C43F1D0404270BDC8
S3150800082000F0004230F000400AD0C10D01F56071B9
S31508000830C0F3160042EA0151C20840071143704747
S3150800084000200146704701F0004330B421F0004112
S3150800085050EA010206D00A0DA2F56072C1F313012F
S31508000860002A02DC30BC00207047440F44EAC10469
S31508000870C100E01830BC00EBC25000F078B830B5C3
S315080008800B46014600202022012409E021FA02F540
S315080008909D4205D303FA02F5491B04FA02F52844DA
S315080008A0151EA2F10102F1DC30BD2DE9F05F054607
S315080008B0002092469B4688460646814640241BE011
S315080008C0284641464746224600F02FF853465A46E0
S315080008D0C01A914110D311461846224600F016F860
S315080008E02D1A67EB01084F4622460120002100F029
S315080008F00DF817EB00094E41201EA4F10104DFDCB8
S31508000900484631462A464346BDE8F09F202A04DB7E
S31508000910203A00FA02F1002070479140C2F1200304
S3150800092020FA03F3194390407047202A04DB203A43
S3150800093021FA02F00021704721FA02F3D040C2F1F1
S3150800094020029140084319467047202A06DBCB1738
S31508000950203A41FA02F043EAE07306E041FA02F36C
S31508000960D040C2F120029140084319467047002939
S31508000970A8BF7047401C490008BF20F00100704717
S3150800098010B4B0FA80FC00FA0CF050EA010404BF77
S3150800099010BC704749B1CCF1200421FA04F411FACD
S315080009A00CF118BF012121430843A3EB0C01CB1D11
S315080009B04FEA00614FEA102042BF002010BC704782
S315080009C000EBC35010440029A4BF10BC7047401C5C
S315080009D0490008BF20F0010010BC7047F0B4002899
S315080009E002DCF0BC00207047C0F3C751C0F3160004
S315080009F040F40000CA0701D14000491E3F2202EB1D
S31508000A006105002211464FF4000626FA01F3134445
S31508000A10D418844201D8001B1A464000491C1729DD
S31508000A20F3DD5100814202D24FF0FF3100E0002190
S31508000A3002EBC550F0BCFFF79ABF10B5141E73F150
S31508000A40000408DA401C41F1000192185B411A4380
S31508000A5001D120F0010010BD2DE9F04D92469B46CC
S31508000A6011B1B1FA81F202E0B0FA80F22032904672
S31508000A70FFF74CFF04460F4640EA0A0041EA0B011D
S31508000A8053465A46084313D0114653EA010019D073
S31508000A90C8F140025046FFF748FF05460E46504645
S31508000AA059464246FFF732FF084305D0012004E0C5
S31508000AB020463946BDE8F08D0020054346EAE07633
S31508000AC02C4337430A986305E40AA0EB0800002282
S31508000AD0FD0A44EA47540A3002D500200146E9E7F0
S31508000AE0010510196941DDE9084500196941BDE8A4
S31508000AF0F04DA2E7C1F30A52C1F3130140F2FF33E6
S31508000B0041F480119A4202DA00200146704740F209
S31508000B1033439A42A2F2334202DC5242FFF705BF40
S31508000B20FFF7F4BE30B5041E71F1000404DB4FF084
S31508000B300044404264EB0101141E73F1000405DB16
S31508000B401C464FF00043524263EB0403994208BF28
S31508000B50904230BD1CB509480090094801900546E9
S31508000B60009C06E0E06840F0010394E80700984717
S31508000B701034AC42F6D3FFF7DFFA00005C6F0008CA
S31508000B807C6F000803F048B92DE9F04144F20044AF
S31508000B90C4F200042046082103F084F910B1204667
S31508000BA003F0E2F92046202103F07CF9002808BF6B
S31508000BB0BDE8F08140F2707841F2BC0641F2840744
S31508000BC040F22005C2F20008C2F20006C2F200078F
S31508000BD0C2F2000504E02046202103F063F908B3B9
S31508000BE0204603F0C1F9C0B201380528F3D8DFE87A
S31508000BF000F00905030E121502F0CCFD306801F06D
S31508000C0063FFE8E7D8F8000001F0A6F9E3E73868DB
S31508000C1001F03EFEDFE702F04BF8DCE7287801F04A
S31508000C20B5F8D8E7BDE8F08184B00C46502181F3C9
S31508000C301188BFF34F8FBFF36F8F05464FF4E1302E
S31508000C4003F066F80CA00D2103F09CF835B1284690
S31508000C50FFF7C0FA81B2284603F094F80AA268465C
S31508000C601021234605F076FA012803DB81B268468F
S31508000C7003F088F8FEE700BF415353455254204617
S31508000C8041494C3A200000003A25640D0A0000004C
S31508000C90B0B50A4600210446CCF2C8111046FFF743
S31508000CA0A0FA4CF6CD41CBF64C51FFF7F2FA0021EB
S31508000CB0C4F24001FFF795FA4FF07F510546FFF75A
S31508000CC0EEFC002818BF4FF07F5528464FF08141AB
S31508000CD0FFF701FD002818BF4FF081452846214639
S31508000CE0FFF77FFAB0BD0000B0B582B040F6004409
S31508000CF008200121C4F2010402F0FAFC42F20200C3
S31508000D00C1F2030000906946204600F0FFF920462C
S31508000D104FF4005100F0A0FA2046022100F09CFA98
S31508000D204FF48040ADF8040048208DF8070001A96B
S31508000D30204600F0EBF903F0F7FF20464FF4005188
S31508000D4000F08AFA2046022100F086FA042000F014
S31508000D50C3F920464FF4005100F080FA042000F051
S31508000D60BBF9812004F0D0FA03F044FFFF2805D030
S31508000D7040B2B0F1FF3F04DD00253CE04FF0FF35FF
S31508000D8039E020464FF4005100F066FA042000F0DE
S31508000D90A3F920464FF4005100F060FA8E2004F0C3
S31508000DA0B3FA0020002504F0AFFA20464FF40051AC
S31508000DB000F052FA042000F08FF920464FF4005153
S31508000DC000F04CFA802004F09FFA002004F09CFA08
S31508000DD020464FF4005100F03FFA042000F07CF959
S31508000DE020464FF4005100F039FA8E2004F08CFAB0
S31508000DF0802004F089FA20464FF4005100F02CFABE
S31508000E0003F0B4FF284602B0B0BD0000002808BFB2
S31508000E1070472DE9F04F81B0044603F085FF40F690
S31508000E200048C4F2010840464FF4005100F014FA95
S31508000E304046022100F010FA042000F04DF9404621
S31508000E404FF4005100F00AFABF2004F05DFA03F0EF
S31508000E50D1FE054603F0CEFE074603F0CBFE8346D9
S31508000E6003F0C8FE814603F0C5FE824603F0C2FEC3
S31508000E7003F0C0FE064640464FF4005100F0ECF978
S31508000E8003F074FFC5F3021000EB800005F00F01B4
S31508000E9001EB40002070C7F3021000EB800007F05A
S31508000EA00F0101EB40006070CBF3011040EA8000AF
S31508000EB00BF00F0101EB4000A070C9F3011040EAE6
S31508000EC0800009F00F0101EB4000E0700AF00F0006
S31508000ED05FEACA6148BF0A302071300900EB80001A
S31508000EE006F00F0101EB4000607101B0BDE8F04F5C
S31508000EF07047000010B582B00420012102F0F8FB0B
S31508000F000220ADF8040048208DF8070040F60000DE
S31508000F10C4F2010001A900F0F9F803F005FF03F097
S31508000F20EDFB044603F022FF002C18BF4FF0FF34F8
S31508000F30204602B010BD0000002804BF6FF0010073
S31508000F4070472DE9F04F87B0044603F0EDFE03F035
S31508000F50D5FB30B103F00AFF6FF0010007B0BDE81A
S31508000F60F08F40F60005CC200194C4F2010503F089
S31508000F7009FCBE2003F006FC40F2020B0020C1F279
S31508000F80030B06AE022448274FF001084FF000096C
S31508000F904FF0000A029000BF28463146CDF818B037
S31508000FA000F0B4F82846022100F056F9022000F0B5
S31508000FB093F828463146CDF818B000F0A7F8284629
S31508000FC0022100F04BF928463146ADF818408DF855
S31508000FD01B7000F09BF8082000F07EF82846314682
S31508000FE0ADF818408DF81B7000F090F828460221DD
S31508000FF000F02CF900284FF0370008FA09F118BF5D
S315080010004AEA010A00F068F809F10109B9F1080F7E
S31508001010C2D102980DF10F0909F800A0013009287C
S31508001020B4D103F0A3FE00208C21002219F8003069
S31508001030002700BF83EA0205164681EA5202ED0739
S3150800104008BF72085B08072F07F10107F2D30130C2
S315080010500828EBD19DF8170082420DD1BDF90F0083
S31508001060FFF78BFB4FF07651FFF713F901990860EC
S31508001070002007B0BDE8F08F4FF0FF3007B0BDE89D
S31508001080F08F000080B503F04FFE03F037FBCC204D
S3150800109003F078FB442003F075FBBDE8804003F0BD
S315080010A065BE000041F2040140F20803CEF20001D9
S315080010B0C2F200030A68D3F800C044F6D353C1F25B
S315080010C06203ACFB033C4FEA9C1358430B689B1A1C
S315080010D08342FBD37047000041F2040140F2080343
S315080010E0CEF20001C2F200030A68D3F800C04DF63A
S315080010F08363C4F21B33ACFB033C4FEA9C4358435F
S315080011000B689B1A8342FBD370470000CA7802F02B
S315080011100F0CD30644BF8B784CEA030C2DE9F04735
S3150800112009880B0625D082465AF8144B00F1100E92
S3150800113000254FF001094FF00F08002706E000BF11
S315080011401E600137082F05F1040511D009FA07F6C4
S315080011500E42F6D008FA05F324EA03030CFA05F45E
S315080011601C43282A5346EBD0482AEAD17346E7E7B8
S315080011700460B1F5807F38BFBDE8F087436800F1A9
S31508001180100E00F1140900254FF4807A4FF00F086D
S31508001190002705E034600137082F05F1040512D051
S315080011A00AFA07F404EA0106A642F4D108FA05F693
S315080011B0B3430CFA05F63343282A4E46EAD0482AA2
S315080011C0E9D17646E6E74360BDE8F087B0B540F278
S315080011D0040CC4F2010C0CF118031A46B0F1FF3FD7
S315080011E0C4BF0422C4F20102146800F44012B2F526
S315080011F0401F1FFA80FE08D1DCF8005024F0706208
S3150800120025F07064CCF8004011E0C20206D46FF0F5
S315080012100F0202EA50420EFA02F204E0C0F3034259
S31508001220032505FA02F224EA020242F070626FF020
S315080012300F0404EA504400290EFA04F518BF2A439D
S31508001240B0F1FF3FC8BF63461A60B0BD806808406A
S3150800125018BF01207047000041617047016170475F
S31508001260B0B50C46054603F05FFD40F26470C2F265
S3150800127000000068286040F26870C2F2000000684A
S315080012802060BDE8B04003F071BD00002DE9F04FC5
S315080012908FB001900A904FF416400B904FF4E1304E
S315080012A043F600050C904FF46140C4F201050D9019
S315080012B04FF496404FF0000A0DF1280B30A602AF06
S315080012C04FF000080E9000BF5BF8280002F020FDE2
S315080012D03046042102F056FD02F0E6FC044602F010
S315080012E0E3FC001B80084FF000097C2815D800BFD6
S315080012F02846202102F0D6FD30B1284602F034FEF9
S3150800130007F8090009F1010902F0CEFC001B800864
S315080013107C2802D8B9F10F0FEADBB9F1020F07F8FA
S3150800132009A00BDB384618A1FEF742FF00284FF04C
S31508001330000008BF4FF0FF3018B909E04FF0FF3042
S3150800134030B108F10108B8F1050FBDD1019812E0D6
S31508001350B8F1000F11D0019D02AC0CA22046202145
S315080013602B4604F0F7FE81B2204602F00BFDC8209A
S31508001370FFF798FE284602F0CBFC0FB0BDE8F08FC9
S3150800138041540D0A000000004F4B000041542B55F4
S315080013904152543D256C752C302C300D0A00000046
S315080013A0F0B587B002F080FC40F27471C2F2000119
S315080013B00A68821AB2F5FA6F32D3086006A805A938
S315080013C0FFF74EFF40F27070C2F20000046841F267
S315080013D08400C2F20000056841F2BC00C2F20000B7
S315080013E00668DDE90507FFF71BFA002F04BF384634
S315080013F03946CDE9020141F2C000C2F2000009A255
S31508001400802123460095019604F0A4FE411E7E29FC
S3150800141006D881B241F2C000C2F2000002F0B2FC66
S3150800142007B0F0BD7B226872223A25642C227370BD
S315080014306F32223A25642C227374657073223A251A
S31508001440642C2274656D70223A252E32667D000062
S31508001450B0B586B00920012102F04AF94FF4001010
S31508001460012102F02DF902200121FFF7AFFE45F216
S31508001470004440F20030C4F20004C1F6034004F50B
S315080014803845019001A92846FFF740FE28464FF443
S315080014904071FFF7E3FE204600F0A4F802AD2846A7
S315080014A000F058F90020CBF6FF7003904FF08060EB
S315080014B004904FF48040ADF8140048F2A060C0F2E2
S315080014C0010002902046294600F0B6F82046012180
S315080014D000F07EF840F25C74C2F20004206808B19D
S315080014E006B0B0BD012003F0B7FF206006B0B0BD5E
S315080014F0B0B586B00820012102F0FAF84FF4800052
S31508001500012102F0DDF845F6000440F60040C4F279
S315080015100004C1F6024004F53445019001A92846A5
S31508001520FFF7F4FD28464FF44061FFF797FE204683
S3150800153000F058F802AD284600F00CF90020CBF66A
S31508001540FF7003904FF0806004904FF48040ADF830
S31508001550140048F2A060C0F2010002902046294615
S3150800156000F06AF82046012100F032F840F258747B
S31508001570C2F20004206808B106B0B0BD012003F02D
S315080015806BFF206006B0B0BD80B584B08E4640F2D1
S3150800159058719C46C2F20001034600200968029071
S315080015A045F600000092C4F200001A467346CDF8CC
S315080015B004C002F027FD04B080BD0000028800299F
S315080015C018BF012122F4806242EA81210180704716
S315080015D00288002918BF012122F001021144018066
S315080015E07047000010B545F20041C4F200014FF4FF
S315080015F08004884208BF4FF400142046012102F0F7
S315080016006BF820460021BDE8104002F065B80000DE
S315080016100288002918BF012122F4807242EA0121BA
S31508001620018070470288002918BF012122F4007240
S3150800163042EA41210180704770B586B00446808829
S315080016400D4620F03F0601A802F05EF803994DF614
S315080016508360C4F21B30A1FB000346EA9340A080D6
S31508001660208820F0010020802A6848F2A060C0F295
S31508001670010082424FEA934008D85200B1FBF2F1CA
S315080016804FF6FC72114208BF042124E0EB884BF6A2
S31508001690FF76B34204D102EB4202B1FBF2F105E058
S315080016A019235A43B1FBF2F141F480410A466FF31C
S315080016B01F32B2FA82F25209114348F20002CFF6FB
S315080016C0FF7211434FF49672504348F63812C0F22F
S315080016D04102A0FB022001302084A18320884FF616
S315080016E0F53140F00100208020886A890840A988E1
S315080016F0084310432080A88929890843208106B019
S3150800170070BD000080B584B08E4640F25C719C4680
S31508001710C2F20001034601200968029045F2004022
S315080017200092C4F200001A467346CDF804C002F0CF
S3150800173069FC04B080BD0000008AC0B27047000092
S3150800174001F0FE01002A18BF0122114401827047E8
S315080017500182704741F288310022CBF6FF720023DE
S3150800176080E80E004FF480418181704780B584B0CF
S315080017708E4640F25C719C46C2F200010346002088
S315080017800968029045F200400092C4F200001A4629
S315080017907346CDF804C002F035FC04B080BD0000E5
S315080017A043F20000C4F200004CF6CC4101607047D9
S315080017B043F20000C4F200004AF6AA21016070470D
S315080017C043F20401C4F200010860704743F20801BD
S315080017D0C4F200010860704743F20001C4F2000138
S315080017E00860704770B584B000240DF10302AE207E
S315080017F0FF2101238DF80340FFF784FF9DF80300BE
S31508001800152877D140208DF8040001AAAE200921B9
S315080018100123FFF7ABFF0A20FFF744FC0DF1050291
S31508001820AE20022101238DF80540FFF79FFF0DF139
S315080018300602AE20032101238DF806400325FFF793
S3150800184095FF10208DF807000DF10702AE2008213C
S315080018500123FFF78BFF02AAAE20042101238DF88E
S315080018600840FFF783FF0DF10902AE200621012388
S315080018708DF80940FFF77AFF0DF10A02AE2005211F
S3150800188001238DF80A40FFF771FF0DF10B02AE2018
S31508001890092101238DF80B40FFF768FF0A20FFF79F
S315080018A001FC47208DF80C0003AAAE200A2101236B
S315080018B0FFF75CFF50260DF10D02AE200C21012327
S315080018C08DF80D60FFF752FF0DF10E02AE200D21C7
S315080018D001238DF80E60FFF749FF0DF10F02AE20C8
S315080018E0092101238DF80F50FFF740FF3220FFF73B
S315080018F0D9FB01E04FF0FF34204604B070BD00006C
S315080019002DE9F041F0B0002440AAAE2004210123BD
S315080019108DF80041FFF7F6FE9DF8005140AAAE206B
S31508001920062101238DF80041FFF7ECFE9DF8000122
S31508001930291A11F01F0811D0684080060ED408EB4A
S31508001940480040AD4300AE2007212A46FFF7DAFEDD
S3150800195048B16FF0010070B0BDE8F0814FF0FF307C
S3150800196070B0BDE8F081A81F0021EC460DF1800E8D
S3150800197010F8065F427807798378C67812023F0224
S31508001980447965F311421A4466F311474CF821204D
S315080019903A194EF8212001318845E9D120A869462F
S315080019A0424601F073FA002070B0BDE8F0810000ED
S315080019B010B582B000240DF10702D0206B21012357
S315080019C08DF80740FFF7D2FE18B14FF0FF3002B08E
S315080019D010BD0A20FFF766FB0DF10702D0201C2177
S315080019E001238DF80740FFF7C1FE002818BF4FF006
S315080019F0FF3002B010BD0000F0B583B01C46154696
S31508001A000E46074601AAD0203B210823FFF77AFE97
S31508001A1018B14FF0FF3003B0F0BD27B1BDF8040090
S31508001A2000BA000C388026B1BDF8060000BA000CD2
S31508001A30308025B1BDF8080000BA000C288084B1B2
S31508001A40BDF80A00C0BAFEF798FE0021C4F2AA3112
S31508001A50FEF751FC41F6B861C4F21221FEF7C1FB4C
S31508001A602060002003B0F0BD2DE9F04F81B040F2B0
S31508001A70583440F228060025C2F20004C2F20006D5
S31508001A800DF101080DF102094FF0100A0DF1030BD3
S31508001A90002704E00137082F04F1800426D0F05D02
S31508001AA00028F7D0A7F150008DF801007820002112
S31508001AB042460123FFF768FD782000214A460123A4
S31508001AC08DF80250FFF760FD782000215A46012361
S31508001AD08DF803A0FFF758FD782040212246802381
S31508001AE0FFF752FD002808BFF555D3E701B0BDE85A
S31508001AF0F08F0000B0B582B03220FFF7D3FAAE20DF
S31508001B008DF807000DF10702782000210123002532
S31508001B10FFF73AFD20208DF807000DF1070278201F
S31508001B2000210123FFF730FD0DF10702782000217F
S31508001B3001238DF80750FFF727FDB0208DF8070021
S31508001B400DF10702782000210123FFF71DFDC820AB
S31508001B508DF807000DF10702782000210123FFF711
S31508001B6013FD0DF107027820002101238DF8075097
S31508001B70FFF70AFD10208DF807000DF107027820FF
S31508001B8000210123FFF700FD40240DF1070278200C
S31508001B90002101238DF80740FFF7F6FC81208DF818
S31508001BA007000DF10702782000210123FFF7ECFC5E
S31508001BB07F208DF807000DF1070278200021012308
S31508001BC0FFF7E2FCA1208DF807000DF10702782047
S31508001BD000210123FFF7D8FCA6208DF807000DF198
S31508001BE00702782000210123FFF7CEFCA8208DF8F4
S31508001BF007000DF10702782000210123FFF7C4FC36
S31508001C003F208DF807000DF10702782000210123F7
S31508001C10FFF7BAFCA4208DF807000DF1070278201B
S31508001C2000210123FFF7B0FCD3208DF807000DF142
S31508001C300702782000210123FFF7A6FC0DF1070211
S31508001C407820002101238DF80750FFF79DFCD52049
S31508001C508DF807000DF10702782000210123FFF710
S31508001C6093FC80208DF807000DF1070278200021EB
S31508001C700123FFF789FCD9208DF807000DF107022B
S31508001C80782000210123FFF77FFCF1208DF807005B
S31508001C900DF10702782000210123FFF775FCDA20F1
S31508001CA08DF807000DF10702782000210123FFF7C0
S31508001CB06BFC12208DF807000DF107027820002131
S31508001CC00123FFF761FCDB208DF807000DF1070201
S31508001CD0782000210123FFF757FC0DF10702782031
S31508001CE0002101238DF80740FFF74EFC8D208DF863
S31508001CF007000DF10702782000210123FFF744FCB5
S31508001D0014208DF807000DF1070278200021012321
S31508001D10FFF73AFCAF208DF807000DF1070278208F
S31508001D2000210123FFF730FC40F25830C2F20000D0
S31508001D304FF48061FEF731FA40F26074C2F2000493
S31508001D40226840F22800C2F200004FF0013101601B
S31508001D5041600AB102B0B0BD012003F07DFB002846
S31508001D602060F7D102A04A21FEF75EFF02B0B0BD9F
S31508001D702E2F63726F7573652E632F6F6C65645FA4
S31508001D80737364313330362E630000002DE9F04F4B
S31508001D9081B040F26078C2F20008D8F80010002935
S31508001DA000F0B98004460846642103F0BFFC012808
S31508001DB040F0B180012C05D0022C07D10FF2701922
S31508001DC05EA506E00FF2541957A502E00FF2741942
S31508001DD05FA540F2583BC2F2000B58464FF48061AB
S31508001DE0FEF7DBF940F2280AC2F2000A4FF001308A
S31508001DF0CAE9000001208AF8000046F67F60C0F6AE
S31508001E00000046F6E42601383D236FF00501C0F6CA
S31508001E1000060022A3F17F07FFB2203BA12F38BF9F
S31508001E200023DBB203EB8303F418F3580BEB01072B
S31508001E302479FB61837806314E2900F1010087F881
S31508001E40204087F82120E5D10BF17F00802100BFD3
S31508001E5010F8012F013942F001020270F8D1012071
S31508001E60002716248AF8010007EB470004EB8000D8
S31508001E70EA5DC0B2022102F003FB0137072FF3D156
S31508001E804846FEF7A7F9C0B250B399F800503DB3DB
S31508001E904FF4FD7148438030400809F101010022E2
S31508001EA0012303E011F8015B0630CDB1C7B27A2FE2
S31508001EB0F8D8A5F17F04E4B2203DA12C38BF00254F
S31508001EC0EDB205EB85057419755924795F44C7F891
S31508001ED0005387F8044387F805238AF80630E1E7B4
S31508001EE00BF27F30802100BF10F8012F013942F034
S31508001EF001020270F8D101208AF80700FFF7B4FD45
S31508001F00D8F8000038B100210022002301B0BDE84E
S31508001F10F04F03F013BB01B0BDE8F08F4E6963655F
S31508001F20207061636521000057616C6B696E6700FC
S31508001F304772656174206A6F6221000052756E6E81
S31508001F40696E670053746179206163746976650008
S31508001F5052657374696E67002DE9F04F83B040F2DD
S31508001F606078C2F20008D8F80010002900F04E8107
S31508001F7005460846642103F0D9FB012840F046814E
S31508001F8040F2583BC2F2000B58464FF48061FEF708
S31508001F9004F940F22809C2F200094FF00130C9E9F4
S31508001FA00000012089F8000046F65E60C0F60000D1
S31508001FB046F6E42701383D236FF00501C0F6000711
S31508001FC0002200BFA3F17F06F6B2203BA12E38BF40
S31508001FD00023DBB203EB8303FC18FB580BEB01066B
S31508001FE02479C6F81630837806315A2900F101009B
S31508001FF0B476F276E6D10BF17F00802110F8012F36
S31508002000013942F001020270F8D10120002D89F849
S31508002010010079DD46F6BA62EA46C0F60002504685
S315080020200C212B4604F096F85046FEF7D3F8C5B2B5
S3150800203085B14FF4FA70684380304608AAF1010466
S3150800204014F8012FF0B2022102F01AFA013D06F146
S315080020500C06F5D146F6DD610120C0F6000189F8C7
S3150800206004000BF23620013962266FF011024FF098
S31508002070000C00BFA6F17F04E4B2203EA12C38BFB5
S315080020800026F6B206EB860602F14905BB19BE59CB
S3150800209045F400751B790BEB05044BF805608E7843
S315080020A0237100F806CF063201F10101E2D146F6A6
S315080020B031610120C0F6000189F806000BF546706B
S315080020C001394E266FF04D024FF0000CA6F17F0441
S315080020D0E4B2203EA12C38BF0026F6B206EB8606EF
S315080020E002F16705BB19BE5945F440751B790BEB20
S315080020F005044BF805608E78237100F806CF063282
S3150800210001F10101E2D16AE046F61C660024342595
S31508002110C0F6000604EB440005EB8000325DC0B251
S31508002120022102F0ADF90134022CF3D146F6DD6145
S315080021300120C0F6000189F804000BF236200139A7
S3150800214062266FF011024FF0000C00BFA6F17F0463
S31508002150E4B2203EA12C38BF0026F6B206EB86066E
S3150800216002F14905BB19BE5945F400751B790BEBFD
S3150800217005044BF805608E78237100F806CF063201
S3150800218001F10101E2D146F6D3610120C0F6000152
S3150800219089F806000BF5497001394E266FF03502AD
S315080021A04FF0000CA6F17F04E4B2203EA12C38BF04
S315080021B00026F6B206EB860602F15B05BB19BE5988
S315080021C045F440751B790BEB05044BF805608E78D2
S315080021D0237100F806CF063201F10101E2D10BF2B4
S315080021E07F30802110F8012F013942F00102027078
S315080021F0F8D1012089F80700FFF736FCD8F8000067
S3150800220020B100210022002303F098F903B0BDE8AD
S31508002210F08F000040F26070C2F2000000680028EB
S3150800222008BF70472DE9F04F8BB0642103F07EFAA2
S31508002230012840F0228340F2583AC2F2000A50467A
S315080022404FF48061FDF7A9FF40F22809C2F20009A0
S315080022504FF00130C9E900000DF11200FEF7D6FD76
S315080022609DF813609DF8143006AF0FF218623846D1
S315080022701421009603F06EFF3846FDF7ABFFC4B293
S3150800228084B14FF4FA706043803045087E1E00BF63
S3150800229016F8012FE8B2002102F0F2F8013C05F128
S315080022A00C05F5D1012089F800009AF813009AF870
S315080022B017609AF8141040F020009AF816308AF839
S315080022C0130046F020009AF815208AF8170041F006
S315080022D050008AF8140043F050009AF86B108AF8F8
S315080022E0160042F088009AF86A208AF8150041F02C
S315080022F008009AF86C308AF86B0042F010009AF8D9
S3150800230069608AF86A0043F010008AF86C0046F0A3
S3150800231020009AF86D608AF8690046F020008AF86D
S315080023206D0042F050008AF86A0043F050008AF8BF
S315080023306C0041F088009DF815609DF816509DF8D0
S31508002340173046F6BD6206AF8AF86B00C0F6000283
S3150800235038461421CDE9005603F0FCFE3846FDF751
S3150800236039FFC1B2002951D09DF8180000284DD078
S315080023704FF4FD7251438031490806AB012203919F
S3150800238007E000BF029B039913F8010F063103917A
S31508002390E0B3A0F17F01C9B220380293A12938BF62
S315080023A00020C4B24FF0000B05E000BF0BF1010B93
S315080023B0BBF1050FE6D046F6E42104EB8400C0F62F
S315080023C00001084410F80B1003980023584445B23E
S315080023D0C0B202E00133072BE8D0002DFAD402FA86
S315080023E003F60E40F6D003F11006C6F3C4060AEB50
S315080023F0C61C03F007081CF800E002FA08F747EACB
S315080024000E070CF8007009F80620E3E70AF27F10B9
S31508002410802100BF10F8012F013942F00102027035
S31508002420F8D146F61F6301204FF00208C0F60003F4
S31508002430312189F803000BE0039B46F61F6213F867
S31508002440011FC0F600020232934208F1060839D08D
S31508002450A1F17F02D2B220390393A12A38BF002105
S315080024605FFA81FB002202E00132052AE4D046F633
S31508002470E4230BEB8B01C0F6000319448B5C08EBD5
S3150800248002014DB2C9B2002603E000BF0136072E8D
S31508002490EAD0002DFAD400FA06F71F40F6D006F166
S315080024A01A0707F00704FFB2FF080AEBC71C1CF857
S315080024B001E000FA04F444EA0E040CF8014009F8B5
S315080024C00700E3E746F6CC22C0F600020E201A21E2
S315080024D001F062FF46F622634FF04208C0F6000399
S315080024E0322001220CE000BF039B46F6226113F856
S315080024F0010FC0F6000102318B4208F1060839D0F7
S31508002500A0F17F01C9B220380393A12938BF002062
S315080025105FFA80FB002102E001310529E4D046F686
S31508002520E4230BEB8B00C0F600031844435C08EB6E
S31508002530010045B2C0B2002603E000BF0136072EEF
S31508002540EAD0002DFAD402FA06F71F40F6D006F1B3
S315080025501A0707F00704FFB2FF080AEBC71C1CF8A6
S3150800256000E002FA04F444EA0E040CF8004009F804
S315080025700720E3E746F6D022C0F600024E201A21CD
S3150800258001F00AFF46F625634FF00208C0F600037D
S31508002590332001220CE000BF039B46F6256113F8A1
S315080025A0010FC0F6000102318B4208F1060839D046
S315080025B0A0F17F01C9B220380393A12938BF0020B2
S315080025C05FFA80FB002102E001310529E4D046F6D6
S315080025D0E4230BEB8B00C0F600031844435C08EBBE
S315080025E0010045B2C0B2002603E000BF0136072E3F
S315080025F0EAD0002DFAD402FA06F71F40F6D006F103
S31508002600260707F00704FFB2FF080AEBC71C1CF8E9
S3150800261000E002FA04F444EA0E040CF8004009F853
S315080026200720E3E746F6D422C0F600020E2026214C
S3150800263001F0B2FE46F628634FF04208C0F60003E2
S31508002640342001220CE000BF039B46F6286113F8EC
S31508002650010FC0F6000102318B4208F1060839D095
S31508002660A0F17F01C9B220380393A12938BF002001
S315080026705FFA80FB002102E001310529E4D046F625
S31508002680E4230BEB8B00C0F600031844435C08EB0D
S31508002690010045B2C0B2002603E000BF0136072E8E
S315080026A0EAD0002DFAD402FA06F71F40F6D006F152
S315080026B0260707F00704FFB2FF080AEBC71C1CF839
S315080026C000E002FA04F444EA0E040CF8004009F8A3
S315080026D00720E3E746F6D822C0F600024E20262158
S315080026E001F05AFE46F62B634FF00208C0F60003C7
S315080026F0352001220CE000BF039B46F62B6113F838
S31508002700010FC0F6000102318B4208F1060839D0E4
S31508002710A0F17F01C9B220380393A12938BF002050
S315080027205FFA80FB002102E001310529E4D046F674
S31508002730E4230BEB8B00C0F600031844435C08EB5C
S31508002740010045B2C0B2002603E000BF0136072EDD
S31508002750EAD0002DFAD402FA06F71F40F6D006F1A1
S31508002760320707F00704FFB2FF080AEBC71C1CF87C
S3150800277000E002FA04F444EA0E040CF8004009F8F2
S315080027800720E3E746F6DC22C0F600020E203221D7
S3150800279001F002FE46F62E634FF04208C0F600032B
S315080027A0362001220CE000BF039B46F62E6113F883
S315080027B0010FC0F6000102318B4208F1060839D034
S315080027C0A0F17F01C9B220380393A12938BF0020A0
S315080027D05FFA80FB002102E001310529E4D046F6C4
S315080027E0E4230BEB8B00C0F600031844435C08EBAC
S315080027F0010045B2C0B2002603E000BF0136072E2D
S31508002800EAD0002DFAD402FA06F71F40F6D006F1F0
S31508002810320707F00704FFB2FF080AEBC71C1CF8CB
S3150800282000E002FA04F444EA0E040CF8004009F841
S315080028300720E3E746F6E022C0F600024E203221E2
S3150800284001F0AAFD0AF27F30802100BF10F8012F9F
S31508002850013942F080020270F8D1012089F8070098
S31508002860FFF702F940F26070C2F20000006820B17A
S3150800287000210022002302F061FE0BB0BDE8F04FF4
S31508002880704700BF253032643A25303264000000B4
S315080028902DE9F04F83B040F26078C2F20008D8F80C
S315080028A00010002900F00C8105460846642102F054
S315080028B03DFF012840F0048140F2583BC2F2000B6C
S315080028C058464FF48061FDF768FC40F22809C2F2C9
S315080028D000094FF00130C9E90000012089F800001D
S315080028E046F69C60C0F6000046F6E42701383D230C
S315080028F06FF00501C0F60007002200BFA3F17F06AE
S31508002900F6B2203BA12E38BF0023DBB203EB8303CC
S31508002910FC18FB580BEB01062479F3618378063122
S315080029204E2900F1010086F8204086F82120E5D1DD
S315080029300BF17F00802100BF10F8012F013942F00A
S3150800294001020270F8D10120002D89F8010057DD37
S3150800295046F6BA62EA46C0F6000250460C212B46F5
S3150800296003F0F8FB5046FDF735FCC5B285B14FF4C8
S31508002970FA70684380304608AAF1010414F8012F5A
S31508002980F0B2022101F07CFD013D06F10C06F5D1FD
S3150800299041F22330C6F20840CBF83D02622046F6E3
S315080029A03F61ABF841020120C0F6000189F8040036
S315080029B089F806000BF5467001394E266FF04D0270
S315080029C04FF0000CA6F17F04E4B2203EA12C38BFDC
S315080029D00026F6B206EB860602F16705BB19BE5954
S315080029E045F440751B790BEB05044BF805608E78AA
S315080029F0237100F806CF063201F10101E2D148E061
S31508002A0046F61C6600243425C0F6000604EB44008E
S31508002A1005EB8000325DC0B2022101F031FD0134C0
S31508002A20022CF3D141F22330C6F20840CBF83D021E
S31508002A30622046F6D361ABF841020120C0F60001D8
S31508002A4089F8040089F806000BF5497001394E2605
S31508002A506FF035024FF0000CA6F17F04E4B2203E79
S31508002A60A12C38BF0026F6B206EB860602F15B05F6
S31508002A70BB19BE5945F440751B790BEB05044BF899
S31508002A8005608E78237100F806CF063201F1010140
S31508002A90E2D10BF27F30802110F8012F013942F084
S31508002AA001020270F8D1012089F80700FEF7DCFF61
S31508002AB0D8F8000020B100210022002302F03EFDD4
S31508002AC003B0BDE8F08F000040F26071C2F2000169
S31508002AD00968002908BF70472DE9F04F83B00546FD
S31508002AE00846642102F022FE012840F0DC8040F20C
S31508002AF05838C2F2000840464FF48061FDF74DFB96
S31508002B0040F22809C2F200094FF00130C9E9000075
S31508002B10012089F8000046F68E60C0F6000046F6E9
S31508002B20E42701383D236FF00501C0F600070022AF
S31508002B30A3F17F06F6B2203BA12E38BF0023DBB2F5
S31508002B4003EB8303FC18FB5808EB01062479C6F847
S31508002B501F3083780631482900F1010086F82340A2
S31508002B6086F82420E4D108F17F00802110F8012F8F
S31508002B70013942F001020270F8D146F6BA62EB4614
S31508002B804FF0010AC0F6000258460C212B4689F878
S31508002B9001A003F0DFFA5846FDF71CFBC5B28DB15C
S31508002BA04FF4FA70684380304608ABF1010400BF61
S31508002BB014F8012FF0B2022101F062FC013D06F182
S31508002BC00C06F5D146F6E161C0F6000108F50C7071
S31508002BD0013973266FF01D024FF0000C89F804A026
S31508002BE0A6F17F04E4B2203EA12C38BF0026F6B237
S31508002BF006EB860602F14F05BB19BE5945F400756A
S31508002C001B7908EB050448F805608E78237100F8EF
S31508002C1006CF063201F10101E2D146F60F61012025
S31508002C20C0F6000189F8060008F21B3001394B2668
S31508002C306FF047024FF0000CA6F17F04E4B2203E85
S31508002C40A12C38BF0026F6B206EB860602F164050B
S31508002C50BB19BE5945F440751B7908EB050448F8BD
S31508002C6005608E78237100F806CF063201F101015E
S31508002C70E2D108F27F30802110F8012F013942F0A5
S31508002C8001020270F8D1012089F80700FEF7ECFE70
S31508002C9040F26070C2F20000006820B100210022F4
S31508002CA0002302F04BFC03B0BDE8F04F704700006C
S31508002CB02DE9F04788B040F26078C2F20008D8F8EB
S31508002CC00000002800F0D680642102F02FFD0128BC
S31508002CD040F0D08040F2583AC2F2000A50464FF40B
S31508002CE08061FDF75AFA40F22809C2F200094FF04E
S31508002CF00130C9E90000012089F8000046F66F6036
S31508002D00C0F6000046F6E42601383D236FF00501BB
S31508002D10C0F60006002200BFA3F17F07FFB2203BE2
S31508002D20A12F38BF0023DBB203EB8303F518F35852
S31508002D300AEB01072D79C7F819308378063154292B
S31508002D4000F101007D77BA77E6D10AF17F0080218C
S31508002D5010F8012F013942F001020270F8D101275B
S31508002D6003A802A989F80170FEF77AFA0398D8B37E
S31508002D700298FDF755FD04AD84460B463FA228464A
S31508002D801021CDE900C303F0E5F9284601F014FC4B
S31508002D9046F64D61C0F6000189F806700AF20F3052
S31508002DA001394E276FF05F024FF0000CA7F17F0341
S31508002DB0DBB2203FA12B38BF0027FBB203EB83030E
S31508002DC002F17005F418F35845F4407724790AEBB4
S31508002DD007054AF807308F782C7100F806CF0632B7
S31508002DE001F10101E2D12EE026A001F0E5FB46F64D
S31508002DF0D361C0F6000189F806700AF549700139F1
S31508002E004E276FF035024FF0000C00BFA7F17F0484
S31508002E10E4B2203FA12C38BF0027FFB207EB870793
S31508002E2002F15B05F319F75945F440751B790AEB6E
S31508002E3005044AF805708F78237100F806CF063224
S31508002E4001F10101E2D10AF27F30802110F8012F49
S31508002E50013942F001020270F8D1012089F8070011
S31508002E60FEF702FED8F8000020B100210022002358
S31508002E7002F064FB08B0BDE8F08700BF252E316676
S31508002E80000000002D2D2E2D00000000002A08BF8E
S31508002E9070472DE9F04F97B041F20C03C2F20003D8
S31508002EA01F884FF6FC7940F6040B40F6084A0E1FB9
S31508002EB0051FC0F20309C2F2000BC2F2000A14464B
S31508002EC00E9200BF55F8040FFDF757FC09EA87086C
S31508002ED04BF8080056F8040FFDF74FFC4AF80800AF
S31508002EE0781C013CC7B2EDD141F2080341F20C0649
S31508002EF0C2F20003C2F2000640F6020118683780E3
S31508002F000E9FC2F200010A8838441860D01985B2AB
S31508002F10B5F5807F284628BF4FF48070C82D28BF96
S31508002F20C825322D088003D217B0BDE8F04F704788
S31508002F30308844F66056A0EB050A5FFA8AF0411914
S31508002F40B1F5807FC2F2000607D80BEB800144F684
S31508002F506050AA00C2F200000CE0C0F580740BEBCA
S31508002F608001A2003046FDF7FFF8291B06EB840016
S31508002F708A005946FDF7F8F840F27870C2F2000068
S31508002F80D0F8009040F26C70C2F20000016845F279
S31508002F901410C2F20000D0F8008040F23800C2F2E5
S31508002FA00000AB46041F043E0020012D009598BF83
S31508002FB04FF0010BCDE90300CDE90500CDE9090085
S31508002FC0CDE90B00CDE90D00CDE9070040F6084232
S31508002FD05FFA8AF0C2F20002454656F8048F52F8A4
S31508002FE02000019008464146FDF7FBF82946FDF703
S31508002FF04AF948F23751C3F6F941FDF74AF9494605
S315080030000290FDF740F94CF66B31C3F67461FDF793
S3150800301040F94946FDF7E5F8814644F8040FFDF7FF
S31508003020FFFB05460F46DDE903102A463B46FDF73A
S31508003030A0F9CDE90310284639462A463B46FDF74E
S315080030403FFADDE90532FDF794F9CDE9051040466A
S31508003050FDF7E6FB05460F46DDE908102A463B461E
S31508003060FDF787F9CDE90810284639462A463B4632
S31508003070FDF726FADDE90A32FDF77BF9CDE90A10F4
S315080030800198FDF7CDFB05460F4607980C992A4689
S315080030903B46FDF76EF907900C91284639462A46B5
S315080030A03B46FDF70DFADDE90D32FDF762F9CDE98C
S315080030B00D100299BBF1010B0AF1010A86D140F203
S315080030C07870C2F20000C0F8009040F26C70C2F24C
S315080030D00000016045F21410DDF80090C2F200000D
S315080030E0C0F800804846FDF756FB05460E46DDE962
S315080030F003102A463346FDF755FAFDF7A4FB0446A6
S31508003100DDE905102A463346FDF74CFAFDF79BFB29
S31508003110074620462146FDF7BCF801463846FDF726
S31508003120B2F800210746FDF7BAFA002818BF0027AB
S31508003130384603F0A3FC4CF6CD41C3F64C71059016
S31508003140FDF7A7F82146FDF74CF80690DDE90810CB
S315080031502A463346FDF726FAFDF775FB0746DDE9ED
S315080031600A102A463346FDF71DFAFDF76CFB04469E
S31508003170384639460B97FDF78CF801462046FDF789
S3150800318082F800210446FDF78AFA002818BF0024B1
S31508003190204603F073FC0A9007980C992A46334692
S315080031A0FDF700FAFDF74FFB0746DDE90D102A4645
S315080031B03346FDF7F7F9FDF746FB04463846394628
S315080031C00E97FDF766F801462046FDF75CF80021E4
S315080031D00446FDF764FA002818BF0024204603F0C9
S315080031E04DFCB9F1030F0D906DD340F27D70C2F21C
S315080031F00000077841F20800C2F20000006840F2B9
S315080032007C71A0EB0900C2F2000100F1010A40F24C
S31508003210380091F80080C2F2000040F28076A9F1E9
S31508003220010500F1040B4FF00109C2F2000609E09E
S3150800323009F101091FFA89F00AF1010A85420BF121
S31508003240040B40DDDBF8004006992046FDF719FA25
S315080032500028EDD15BF8041C2046FDF712FA002879
S31508003260E6D1DBF804102046FDF70BFA0028DFD17B
S315080032705FEA08600FD05FFA88F02028384618BF42
S3150800328020204044013800F01F0056F82000AAEB21
S3150800329000002928CCD3F8B246F820A0781C00F004
S315080032A01F075FFA88F01F2840F27D70C2F20000FF
S315080032B00770BDD840F27C7008F10108C2F2000020
S315080032C080F80080B4E74CF6CD410598C3F64C610A
S315080032D0FDF7E5F9002872D144F200010B98C4F213
S315080032E09C51FDF7EAF9002869D040F60440C2F27D
S315080032F00000017840F60002C2F20002002303290A
S31508003300137005D80131CAB2042A0170FFF40CAE55
S3150800331040F27C70C2F2000000780228C0F0E38018
S31508003320A0F10109B9F1080FA8BF4FF00809B9F1D2
S31508003330000F24D040F27D71C2F2000109782028DE
S3150800334018BF2021C9B208440FAA40F28073A0EB27
S3150800335009006FEA0901043AC2F20003471E00F0A9
S315080033601F0607F01F0753F8266053F82770013128
S31508003370F71B42F8047F4F1C00F10100EED1B9F1AA
S31508003380020F47D3012000270FAA07E001310130B9
S31508003390484507F1010742F821303BD052F8203062
S315080033A0394600BF52F821609E42EFD902EB8105EB
S315080033B06E604E1C0139012EF4DC0021E7E740F669
S315080033C00000C2F20000017840F604420131CBB297
S315080033D0C2F200028B424FF00003137008BF01705F
S315080033E000780328FFF4A0AD40F27070C2F2000026
S315080033F00021016040F23000C2F20000016041F293
S315080034008400C2F20000016040F23400C2F20000FB
S31508003410016089E5B9F1000F31D06FF0020000EACA
S3150800342049000FAC20584CF6CD41CCF6CC41A0FB58
S31508003430011240F20008A0EB920A00EB920B00265C
S31508003440C4F259080025002703E000BFB9F10109B5
S3150800345018D054F8040B5045F8D35845F6D8FDF75C
S315080034609AF900224346FDF79DF802460B46284680
S315080034703946FCF77EFF05460F460136E6E7002586
S31508003480002700267EB33046FDF785F902460B462F
S3150800349028463946FDF786F843F23333C3F6D37325
S315080034A04FF0804204460E46FDF731F94FF000050D
S315080034B0D0B92046314600224FF08043FDF742F945
S315080034C090B90021C4F24E01002022463346FDF78A
S315080034D069F80023C3F6E0730022FCF74AFFFDF7FC
S315080034E080F9054600E00025012D47DB40F230074C
S315080034F0C2F200073C6800212046FDF7FAF80646A6
S315080035002846FDF73AF905465EBB0021C4F22011AC
S315080035102046FCF766FE29460646FDF7C0F868B958
S315080035200021CCF220112046FCF75BFE2946804696
S31508003530FDF7A7F82E46002808BF464649F69A1111
S31508003540C3F659712046FCF7A4FE49F69A110446BB
S31508003550C3F619613046FCF79CFE2146FCF741FE8E
S31508003560054628464FF07C513D60FCF73AFEFDF7CC
S315080035701FF940F27071C2F2000108600A98002132
S31508003580FDF77FF800287FF4CFAC0E980021FDF7F1
S3150800359078F800287FF4C8ACDDE90D01FCF7ABFE2E
S315080035A00446DDE90A01FCF7A6FE01462046FCF7BB
S315080035B0A2FE0021CCF2C811FCF76BFE0021C4F272
S315080035C0DC21FCF70EFE4FF07C51FCF70AFEFDF7F6
S315080035D0EFF840F234070546C2F200073228D8BF92
S315080035E032253C6800212046642D28BF6425FDF756
S315080035F080F806462846FDF7C0F805464EBB204625
S315080036004FF08041FCF7EDFD29460646FDF747F8E1
S3150800361060B920464FF04041FCF7E3FD2946804655
S31508003620FDF72FF82E46002808BF464649F69A1198
S31508003630C3F659712046FCF72CFE49F69A11044642
S31508003640C3F619613046FCF724FE2146FCF7C9FD8E
S31508003650054628464FF07C513D60FCF7C2FDFDF754
S31508003660A7F841F28401C2F2000108605CE4000098
S31508003670EFF30980BFF36F8F104B1A6820E9F00F3C
S3150800368010602DE908404FF0500080F31188BFF311
S315080036904F8FBFF36F8F01F0E3FD4FF0000080F30B
S315080036A01188BDE8084019680868B0E8F00F80F38B
S315080036B00988BFF36F8F704700BF00001010002005
S315080036C0002941F21C01C4F202010A680CBF22EA71
S315080036D00000104308607047002941F21001C4F247
S315080036E002010A680CBF22EA00001043086070470E
S315080036F0002941F21801C4F202010A680CBF22EA45
S31508003700000010430860704710B541F20404C4F283
S315080037100204226802F00C02082A41F20022C0F2D2
S315080037207A0212D12368D4F800C0C3F3834E5FEA45
S31508003730CC330EF1020C02D523689B0303D540F661
S315080037400012C0F23D020CFB02F20260226846F645
S31508003750BC23C2F30312C0F600039A5C0168D14089
S3150800376041602268C2F302229A5C21FA02F2826060
S315080037702268C2F3C2229A5C46F6A823D140C160E9
S315080037802268C0F60003C2F381329A5CB1FBF2F1FB
S31508003790016110BD80B501F0C7FA41F2BC00C2F262
S315080037A000000021016041F2AC00C2F20000016095
S315080037B041F28B00C2F20000017041F28A00C2F2A7
S315080037C00000017041F28800C2F20000017041F267
S315080037D0B000C2F20000017041F28900C2F2000096
S315080037E00170BDE8804001F0C1BA0000074B1968B6
S315080037F00868B0E8F00F80F30988BFF36F8F4FF0C1
S31508003800000080F311884EF00D0E7047101000204E
S315080038102DE9F04F81B015460E46074600F044FAEA
S3150800382083463846FCF7A9FF07463046FCF7A5FF4E
S315080038300146FCF72EFD064638463946FCF729FDB3
S315080038403146FCF7CEFC06462846FCF796FF0146AD
S31508003850FCF71FFD3146FCF7C4FC03F00FF940F2F4
S315080038601C04C2F200042168054608460021FCF73C
S3150800387040FF002818BF25604DF200712668C3F680
S31508003880A3412846FCF705FD4EF248110746C3F644
S315080038907A713046FCF7FDFC3946FCF7A2FC014676
S315080038A020602846FCF7EFFC40F20404C2F200044C
S315080038B04DF200710546266820F00040C3F6A33194
S315080038C0FCF7E7FC4BF652010746C3F67E71304615
S315080038D0FCF7DFFC3946FCF784FC0021C4F21631FC
S315080038E006462060FCF7DBFE41F28807C2F20007B5
S315080038F000281CBF0026C4F21636387841F2AC0AF6
S31508003900C2F2000A88B330464FF07C51FCF7C1FC7E
S3150800391001462846FCF7D1FE002840F0AE80DAF8CA
S3150800392000000021ABEB0005B5F5967F397040F233
S31508003930A48041F28909C2F2000999F80000012819
S315080039401CD140F6B930854272D3002089F80000B0
S3150800395041F2B400C2F20000C0F800B041F2B00073
S31508003960C2F200000121017085E028463146FCF7C5
S3150800397088FE002804BF012038707EE041F2B008B6
S31508003980C2F2000898F80000012808D8411C88F8F7
S31508003990001041F2B401C2F2000141F820B098F8D3
S315080039A00000022867D341F2B401C2F2000101EB1C
S315080039B0800050F8040C0968401A40F6B83188426D
S315080039C032D801F0B1F998F8000040B341F28A0CF8
S315080039D041F28B0EC2F2000CC2F2000E9CF80020D7
S315080039E09EF8001041F28C0741F2BC030026C2F291
S315080039F00007C2F2000300BFCCB2013101F0070193
S31508003A0047F82450072A8EF800109CBF01328CF81C
S31508003A1000201C680136013486421C60ECD301F094
S31508003A20A5F9012089F80000002088F8000022E0A6
S31508003A3001F07AF941F28B02C2F20002107841F2E3
S31508003A408C01C2F2000141F82050431C41F28A0061
S31508003A50C2F20000017803F00703072913709CBF20
S31508003A600131017041F2BC00C2F200000168013167
S31508003A70016001F07BF9CAF800B0DAF8000040F6F8
S31508003A80B831ABEB0000884201D9002036E041F29C
S31508003A908A00C2F200000478032C34D341F28C0069
S31508003AA0C2F20000011F0020224600BF51F8043F61
S31508003AB0013A1844FAD1FCF769FE05462046FCF798
S31508003AC065FE01462846FCF716FC014646F200004C
S31508003AD0C4F26A70FCF70FFC0021C4F2C821044640
S31508003AE0FCF7F9FD08B1022008E00021C4F27021B4
S31508003AF02046FCF7F0FD002818BF012040F22001FF
S31508003B00C2F20001087001B0BDE8F08F80B5502000
S31508003B1080F31188BFF34F8FBFF36F8F02F04CF815
S31508003B2030B14EF60450CEF200004FF080510160DD
S31508003B30002080F3118880BD41F20400C4F202001F
S31508003B40016801F00C01082941F20021C0F27A014E
S31508003B500FD102680368C2F38342DB0302F1020253
S31508003B6002D503689B0303D540F60011C0F23D0158
S31508003B70514340F20802C2F200021160006846F69C
S31508003B80AC21C0F30310C0F60001085C116821FAE5
S31508003B9000F010607047000082B041F20400C4F2E1
S31508003BA0020050F8041C002241F0010140F8041CF0
S31508003BB00168CFF6FF021140016050F8041C4FF669
S31508003BC0FF72CFF6F662114040F8041C50F8041C48
S31508003BD021F4802140F8041C016821F4FE010160EB
S31508003BE04FF41F01416000210191009150F8041C17
S31508003BF041F4803140F8041C50F8041C01F40031EB
S31508003C000091019901310191009919B90199B1F50C
S31508003C10A06FF1D150F8041C890354BF002101217B
S31508003C2000910099012936D142F20001C4F202013D
S31508003C300A6842F010020A600A6822F007020A605F
S31508003C400A6842F002020A600168016001680160C0
S31508003C50016841F480610160016821F47C1101600A
S31508003C60016841F4E811016050F8041C41F08071C4
S31508003C7040F8041C50F8041C8901FBD5016821F0A2
S31508003C8003010160016841F002010160016801F069
S31508003C900C010829FAD14EF60850CEF200004FF072
S31508003CA00061016002B0704780B501F06BFF012822
S31508003CB013D141F2040040F20801CEF20000C2F22C
S31508003CC000010068096844F6D352C1F26202A1FBFA
S31508003CD002129109B0FBF1F080BDBDE8804001F009
S31508003CE065BF000080B5FFF727FF4EF6FC50CEF201
S31508003CF00000016841F08071016041F20000CEF2D7
S31508003D000000016841F0010101600021416080BDA9
S31508003D1070B586B0044644F204000121FFF7E8FCBA
S31508003D2040F2002040F60005C1F60300C4F2010582
S31508003D3001AE019028463146FDF7E8F94FF4806058
S31508003D40ADF8040048208DF8070028463146FDF7EF
S31508003D50DDF902AE304600F00FF9029400204FF468
S31508003D60402105F5405403900491ADF8140020460F
S31508003D70314600F09DF82046012100F089F806B08A
S31508003D8070BD00002DE9F04381B043F60004C4F28B
S31508003D90010400290D4618BF012526D0894680460C
S31508003DA00026FFF781FF18F806100746204600F0A0
S31508003DB0DFF800BF2046802100F074F830B9FFF71D
S31508003DC073FFC01BC828F5D908E000BF01364E4569
S31508003DD04FF0000538BF0125E3D106E0E80704D017
S31508003DE04FF0FF3001B0BDE8F083FFF75DFF0546F1
S31508003DF02046402100F056F8064620B9FFF754FF42
S31508003E00401BC928F4D30020002E08BF4FF0FF300E
S31508003E1001B0BDE8F0830000F0B585B004464FF464
S31508003E2000300121FFF74CFC04200121FFF760FC5C
S31508003E3044F200450420C4F20005C1F6030005F566
S31508003E4044466F46009030463946FDF75FF908202C
S31508003E50ADF8000048208DF8030030463946FDF7D6
S31508003E6055F901AE304600F087F800204FF440219E
S31508003E7002900391ADF8100028463146019400F0EF
S31508003E8017F82846012100F003F805B0F0BD000038
S31508003E908289002918BF012122F4005242EA4131E1
S31508003EA0818170470088084018BF012070470000CC
S31508003EB070B586B00446008A0D46C98820F440507D
S31508003EC008432082A0894EF6F3110840A9882A895A
S31508003ED06B89084310431843A081A08AA98920F456
S31508003EE04070084301AEA0823046FFF70DFC43F64A
S31508003EF0000106F10800C4F201018C4208BF06F170
S31508003F000C0000681922B4F90C1050432A680123E2
S31508003F10B1F1FF3FC8BF022302FA03F1B0FBF1F08B
S31508003F2048F21F51C5F2EB11A0FB01235A096FF0A5
S31508003F30630302FB0300B4F90C300326B3F1FF3F19
S31508003F40C8BF042600FA06F000F13200A0FB010102
S31508003F504FF00700C8BF0F2000EA511040EA0210D0
S31508003F60208106B070BD000080886FF35F2070471F
S31508003F706FF35F21818070474FF4165100224FF48A
S31508003F80402380E80E008281704700002DE9F04149
S31508003F908846012115460446FDF73AFBFFF784FEDD
S31508003FA0074600BFA08AC60709D1A08A10F4E06FA9
S31508003FB004D1FFF779FEC01B3328F3D3D6B1002D01
S31508003FC018BF01255FFA88F120462A46FDF7B8FB97
S31508003FD0FFF76AFE054600BFA08A86070ED4A08AA8
S31508003FE010F4E06F04D1FFF75FFE401B3328F3D3CC
S31508003FF0002E03D44FF0FF30BDE8F081208B00205F
S31508004000BDE8F0812DE9F04F85B0E9B38B4605464A
S31508004010084664211F46164601F088FB012833D15D
S315080040202846314600220024FFF7B0FF90B34FF030
S31508004030FF3614BB28460121FDF7F4FA2846FDF79A
S31508004040D1FA01AF3846FDF785FB0020CBF6FF70A5
S3150800405002904FF0806003904FF48040ADF8100056
S3150800406048F2A060C0F20100019028463946FDF7E3
S31508004070E3FA28460121FDF7ABFA5846002100224B
S31508004080002301F05BFA01E04FF0FF36304605B039
S31508004090BDE8F08FDDE90F8A28463946FDF758FB5B
S315080040A0FFF702FE074600BFA88A04060AD4A88AB4
S315080040B010F4E06F04D1FFF7F7FDC01B3328F3D3E4
S315080040C0002C08D5BAF1000F0BD02846314601223C
S315080040D0FFF75CFF78B34FF0FF360024002CCCD1F5
S315080040E0A8E7DDF838A0B8F1000F444618BF012448
S315080040F056D04FF0000909E0002F4FD509F1010904
S31508004100C1454FF0000438BF012449D01AF80910F8
S315080041102846FDF71DFBFFF7C7FD0646A88A0706D2
S31508004120ECD4A88A10F4E06FE6D1FFF7BDFD801B3A
S315080041303328F3D3E0E7B8F1000F444618BF01244B
S3150800414037D0A8F1010A00270DE0B9F1000F2DD5E7
S315080041502846FDF7F1FA0E990024C8550137474558
S3150800416038BF012425D0BA4507D128460021FDF7D6
S3150800417025FA28460121FDF755FAFFF795FD06466B
S31508004180A88A5FEA4069E3D4A88A10F4E06FDCD114
S31508004190FFF78AFD801B3328F2D3D6E7E0079AD1CA
S315080041A0284601210124FDF73DFA07E0E0077FF4E0
S315080041B092AF284601210124FDF700FA0026002CBB
S315080041C03FF438AF59E7000098B0FFF7E5FCFFF772
S315080041D0B3FCFFF787FDFDF73BF9FDF789F94FF4C7
S315080041E0E130FFF795FDFDF7FDFAFDF7E1FBFCF77A
S315080041F081FEFCF779FD4AA14DA2002808BF0A46B0
S315080042004FF02001104608BF0C21FFF7BBFDFDF754
S3150800421071FC04200121FFF76BFA012040F6000427
S31508004220C1F20240C4F20104CDF81A000DF11A01D8
S315080042302046FCF76BFF20460121FDF70DF84FF4E9
S315080042401650FDF723F84FF41650FCF79BFC0DF1BA
S315080042505A00FCF7DBFD9DF85D209DF85E509DF841
S315080042605A009DF85B109DF85C309DF85F40CDE9DB
S3150800427002250DF11A05CDE9001036A2284640217F
S31508004280049401F067FF2846FBF7A4FF81B228468D
S31508004290FFF778FD45F2191000240325C0F6000043
S315080042A036A14FF400720023CDE9005401F06AFBF1
S315080042B044F605700225C0F6000032A14FF40072DC
S315080042C00023CDE9005401F05DFB45F2FD20C0F660
S315080042D000002EA14FF4C0720023CDE9005401F06E
S315080042E051FB44F6A560C0F600002AA14FF4C0723F
S315080042F00023CDE9005401F045FB45F25550FDF782
S315080043006BFA0620FDF75CFA40F27120FDF75EFABB
S31508004310FDF74EFAFDF744FA00F052FFFEE700BF3C
S315080043204453313330323A204F4B0D0A0000000017
S315080043304453313330323A204E4F20434F4D4D20AF
S3150800434028636865636B20776972657321290D0A8E
S31508004350000000005254433A20253032643A253092
S3150800436032643A2530326420253032642F253032C3
S31508004370642F3230253032640D0A000053656E739F
S315080043806F727300446973706C617900566F696364
S3150800439065000000425400002DE9F04F86B040F257
S315080043A0583A40F2280B039100214FF00109C2F256
S315080043B0000AC2F2000BCDE9000203E002990131BE
S315080043C0042959D001980291405C0D28F6D8029923
S315080043D000EB400001EB4102009901EB820646F62C
S315080043E0BF41C0F6000101EBC00006F10807002234
S315080043F0049003E0059A01320C2ADFD0049905924D
S3150800440001EB42004478039811F812E0104400F0DA
S315080044100702C0B209FA02F54FEAD00C002002E002
S315080044200130082812D00EFA00F21206F8D5321812
S3150800443052B2002AF4D4D2B20AEBCC1818F80210F9
S315080044400BF80C90294308F80210E9E7002002E06F
S3150800445001300428CED004FA00F10906F8D5391837
S315080044604AB2002AF4D4D1B20AEBCC12535C0BF848
S315080044700C902B435354EBE706B0BDE8F08F0000D1
S315080044802DE9F04F86B00190A2F17F00C0B2203A24
S31508004490C900A12838BF0022D0B2039146F6E4210C
S315080044A000EB8000C0F6000140F2583240F22808BE
S315080044B0002308444FF0010EC2F20002C2F20008BF
S315080044C0009003E0029B0133052B72D0009800246C
S315080044D010F803900198002500EB430041B25FFAFB
S315080044E080FB0130059141B25FFA80FA029304918C
S315080044F005E000BF0135072D04F10204E2D029FAD0
S3150800450005F0C007F6D005980028039800EB040CC0
S3150800451016D4CCF3C40E434602EBCE1804F00600BC
S3150800452001214E4618F80B9001FA00F040EA0900FE
S31508004530B14608F80B00984603F80E104FF0010E26
S31508004540049800280ED4CCF3C40602EBC61104F076
S31508004550060011F80A300EFA00F0184301F80A00AE
S3150800456008F806E0059800284CF001000ED4CCF3B4
S31508004570C40302EBC31600F0070116F80B700EFA17
S3150800458001F1394306F80B1008F803E004990029ED
S31508004590B0D4CCF3C40102EBC11300F0070013F842
S315080045A00A700EFA00F0384303F80A0008F801E02A
S315080045B0A0E706B0BDE8F08F2DE9F0410446FBF709
S315080045C009FEC5B205EB450012214FEA800801EB4A
S315080045D08000C0B2C0F180004FEA500665B1013CC8
S315080045E0374600BF14F8012FF8B20221FFF748FF3B
S315080045F0013D07F10C07F5D106EB0800411C4BB24B
S3150800460040F2583240F2280C002BC2F20002C2F2E5
S31508004610000C0AD4DFB2174497F8006146F0010689
S3150800462087F8006101278CF80270871C7CB2002C81
S315080046300AD4E7B2174497F8006146F0010687F8EE
S31508004640006101278CF8027046B2002E0AD4C7B260
S31508004650174497F8005145F0020587F800510127DD
S315080046608CF80270C71C7FB2002F0AD4FDB215441D
S3150800467095F8001141F0020185F8001101218CF826
S315080046800210002E0AD4C1B2114491F8006146F016
S31508004690040681F8006101218CF80210002F0AD463
S315080046A0F9B2114491F8007147F0040781F80071D6
S315080046B001218CF80210002B0AD4D9B2114491F8C2
S315080046C0003143F0080381F8003101218CF802100B
S315080046D0002C0AD4E1B2114491F8002142F00802F4
S315080046E081F8002101218CF802100630C0B202219F
S315080046F04322BDE8F041FFF7C3BE000070B582B0A3
S3150800470040F600040226C4F20104C1F2030601A918
S3150800471020460196FCF7FAFC204602210225FCF702
S315080047209BFD4FF4FA70FCF7D7FC01A920460196C9
S31508004730FCF7ECFC20460221FCF790FD3C20FCF738
S31508004740CBFC482601A92046ADF804508DF8076031
S31508004750FCF7DCFC01A92046ADF804508DF807608B
S31508004760FCF7D4FC20460221FCF770FD04464FF402
S31508004770D270FCF7B1FC002C18BF4FF0FF3420466E
S3150800478002B070BD2DE9F04381B040F6000540F255
S3150800479002090446C4F201050826C1F20309E846DF
S315080047A01FE000BF28464146CDF80090FCF7AEFC56
S315080047B028460221FCF750FD4120FCF78DFC2846CF
S315080047C04146CDF80090FCF7A1FC052728460221B2
S315080047D0FCF744FD3846FCF77FFC013E4FEA5404DB
S315080047E016D0E007DED028464146CDF80090FCF703
S315080047F08DFC28460221FCF72FFD0520FCF76CFCF2
S3150800480028464146CDF80090FCF780FC4127DDE7B5
S3150800481001B0BDE8F0830000F0B581B00C4645F262
S315080048200C1141F21006C2F20001C2F200060F682E
S315080048303168002281F8512031680546081D00F0CC
S315080048400FFA10B1681C0FD027E0306844F65852AA
S31508004850C06AC2F200020121136801FA00F023EAD5
S3150800486000001060681C18D1BCB145F2E400C2F221
S3150800487000004168326891608A683368DA60326895
S315080048808B6804325A60326804328A60316848613B
S3150800489001680131016001B0F0BD30687C194460DF
S315080048A00BD341F21C00C2F20000006831680431E3
S315080048B001B0BDE8F04000F019BA41F21400C2F2A6
S315080048C0000000683168043100F010FA45F2B000C3
S315080048D0C2F2000001688C4238BF046001B0F0BD26
S315080048E044F64C5541F2200A4EF6045845F2F807AC
S315080048F044F64856C2F20005C2F2000ACEF2000893
S315080049004FF08059C2F20007C2F2000615E000BF58
S3150800491000F00AFAF868C468201D00F0A1F93068AA
S315080049200138306028680138286000F01FFA206BCB
S3150800493000F034FA204600F031FA28680028E7D15A
S31508004940DAF800000228F8D3C8F80090BFF34F8FB2
S31508004950BFF36F8FF1E7000006480068006880F330
S31508004960088862B661B6BFF34F8FBFF36F8F00DF5B
S3150800497000BF00BF08ED00E040F20C00C2F20000E4
S315080049800068013006D046F6E760C0F60000D2217E
S31508004990FCF74AF9502080F31188BFF34F8FBFF315
S315080049A06F8F00BFFEE70000F0B581B0044600F047
S315080049B0BBF994F94560012E0FDB04F1240500BF0D
S315080049C0286850B1284601F091FA002818BF00F06F
S315080049D013FB70B2013E0128F2DCFF2684F845601D
S315080049E000F0C4F900F0A0F994F94470012F0EDB29
S315080049F004F11005286850B1284601F077FA002816
S31508004A0018BF00F0F9FA78B2013F0128F2DC84F801
S31508004A10446001B0BDE8F04000F0A8B92DE9F047C0
S31508004A20044600F015FC41F21806C2F2000630688A
S31508004A3045F2800AC2F2000A48BB41F24010C2F2AF
S31508004A400000C11D420700F5705218BF21F007008B
S31508004A5045F2DC01C2F200010023C1E9000322F09D
S31508004A600701A1F10802326041E90233111A3268DE
S31508004A70C0E9002140F21400C2F20000016040F2D1
S31508004A801000C2F20000016001208AF800009AF8BE
S31508004A900000002818BF4FF00040204250D13CB11A
S31508004AA060071ABF24F0070000F11004083400E07C
S31508004AB0002440F21008C2F20008D8F80000611E6F
S31508004AC081423DD245F2DC00C2F2000007687968EF
S31508004AD0A14206D23A6822B1516838461746A14221
S31508004AE0F8D3326897422BD0D0F800903A68091B61
S31508004AF0112902603FD33D19680707D046F60F70A3
S31508004B00C0F6000040F22111FCF78EF8786845F2ED
S31508004B10DC01001BC2F2000168607C600846096877
S31508004B20A942FBD342688318AB4203D16B6805469A
S31508004B301A4442606B68EA188A4211D00A4616E09F
S31508004B40002401F041FA600707D046F60F70C0F658
S31508004B5000004FF4B171FCF767F82046BDE8F0870E
S31508004B603268914203D0D1E9002119446960A8420C
S31508004B702A6018BF056040F214007968D8F800204A
S31508004B80C2F200000368511A9942C8F8001038BFEB
S31508004B9001609AF8000045F2B8027968C2F200028C
S31508004BA0002818BF41F000411368002009F10804E5
S31508004BB0C7E90001581C1060C3E7000041F2100065
S31508004BC0C2F20000016819B101688A6C01328A6470
S31508004BD000687047034644F67910C0F600004FF0A7
S31508004BE0807C21F0010103E90310A3F1400043F89A
S31508004BF0202C7047F0B581B040F600444FF4804051
S31508004C00C4F20104ADF8000048208DF80300694697
S31508004C102046FCF77BFA00260127002520460221BC
S31508004C20FCF71AFB0120FCF757FA20464FF480419F
S31508004C30FCF70CFB07FA06F1002818BF0D432046BF
S31508004C400221FCF70BFB0120FCF746FA0136082E79
S31508004C50E4D120460221FCF7FFFAE8B201B0F0BD24
S31508004C60D0E9013201699A60D1F804C082688445A6
S31508004C70536008BF4A60002202610868013808606C
S31508004C80086870474FF4E1300C46FFF741F809A071
S31508004C901021FFF777F834B12046FBF79BFA81B26B
S31508004CA02046FFF76FF808A00221FFF76BF800BF50
S31508004CB0FEE700BF535441434B204F564552464CDE
S31508004CC04F573A20000000000D0A00004FF0FF3150
S31508004CD0024642F8081F00214260C0E9032201602B
S31508004CE070470000002101617047000080B5D1F8C7
S31508004CF000C01CF1010207D000F108039E465B685C
S31508004D001A686245FAD901E0D0F810E0DEF8042006
S31508004D1008614A609160C1F808E0CEF8041001689D
S31508004D200131016080BD0000502080F31188BFF377
S31508004D304F8FBFF36F8F40F20C00C2F2000001687C
S31508004D404A1C0029026018BF70474EF60450CEF27E
S31508004D5000000068000607D046F6E760C0F60000C7
S31508004D6040F27F11FBF760BF7047000010B540F2B4
S31508004D700C04C2F20004206838B946F6E760C0F6AB
S31508004D8000004FF4C371FBF74FFF2068013820601D
S31508004D9018BF10BD002080F3118810BD70B500281B
S31508004DA055D045F28006C2F200060446307854F81B
S31508004DB0041C002818BF4FF000400842A4F108055B
S31508004DC007D146F60F70C0F600004FF4BB71FBF72B
S31508004DD02BFF286838B146F60F70C0F6000040F27F
S31508004DE07711FBF721FF307854F8041C002818BF08
S31508004DF04FF0004008422AD02A68002A18BF70BD22
S31508004E0021EA000044F8040C00F022FA40F21001EE
S31508004E10C2F2000154F8040C0A681044086045F20E
S31508004E20DC01C2F2000100BF08460968A942FBD3AB
S31508004E3042688318AB4204D154F8043C05461A4428
S31508004E4042606B68EA188A4202D00A460BE070BDD7
S31508004E5041F21802C2F200021268914203D0D1E967
S31508004E60002119446960A8422A6018BF056045F206
S31508004E70BC00C2F20000016801310160BDE8704063
S31508004E8001F0A2B84EF21000CEF200000021016037
S31508004E90816041F63F11C0F20101416007210160BE
S31508004EA070470000FCF77CFA142000F001F8F9E7D7
S31508004EB0B0B5D0B144F65055C2F20005044628688C
S31508004EC038B146F63E70C0F600004FF4A461FBF711
S31508004ED0ABFE28680021013028602046FFF79CFCBD
S31508004EE001F072F8002818BFB0BD4EF60450CEF295
S31508004EF000004FF080510160BFF34F8FBFF36F8FF3
S31508004F00B0BD000040F600044AF6AB2740F2200B7D
S31508004F1040F2180810250026C4F20104C2F6AA2792
S31508004F20C2F2000BC2F200084FF0100907E000BFFA
S31508004F304FF00009322009F10109FFF7B9FF2046B1
S31508004F4001214FF0010AFCF781F968B100F02EFE45
S31508004F50D8F80010411AB1F5967F86BFC8F8000048
S31508004F604FF0000A4FF0010A701C80FB071202EB93
S31508004F70D271BAF1000F01EB410104BFA0EB410663
S31508004F80A946B9F10A0FD5DB052ED1D8DFE806F018
S31508004F90080B131B23039BF80000FCF7F7FEC7E773
S31508004FA0FDF738F9C4E740F27070C2F200000068F5
S31508004FB0FCF7D2FFBCE741F28400C2F200000068A9
S31508004FC0FDF766FCB4E741F2BC00C2F200000068D7
S31508004FD0FDF77AFDACE7FDF76BFEA9E745F2B401EC
S31508004FE0C2F200010968016045F20C11C2F2000123
S31508004FF0096841607047000045F21010C2F20000CF
S315080050000121016070470000B0B505460C4638B965
S3150800501046F63E70C0F6000040F64B41FBF704FE2C
S3150800502041F21000C2F20000006800F1180128469B
S31508005030FFF75CFE20460121BDE8B040FFF7ECBB58
S31508005040002808BF704770B50446806C0D4638B90D
S3150800505046F63E70C0F6000041F2DC01FBF7E4FDBF
S31508005060606CE16AA84288BF0546A94224D0A06CB4
S31508005070012821D141F21000C2F200000068A042C6
S3150800508007D146F63E70C0F6000041F2F701FBF77D
S31508005090CBFDA169E06A0029E5625CBFC5F105019F
S315080050A0A16141F22006616900EB8000C2F20006A8
S315080050B006EB8000814202D0BDE870407047251D8E
S315080050C02846FFF7CDFD002844F65850C2F20000E6
S315080050D007D1E16A0122036802FA01F123EA010114
S315080050E00160E16A012203688A401A43026001EB03
S315080050F0810006EB80014A6861619368A260E360FB
S31508005100936895605D6056F82010013146F82010C6
S31508005110BDE870407047000084B040F2000944F6CC
S315080051205C54C4F2C8190DF10E0A03AD0DF10A0656
S3150800513001AFC2F200044FF0000B07E0FBF7A2FF35
S31508005140207801302070C820FFF7B2FEFCF730FB4C
S31508005150FCF7D6FB5046294632463B46ADF80EB01C
S31508005160ADF80CB0ADF80AB0CDF80490FCF744FCE5
S315080051704FF0000848B9BDF90E00BDF90C10BDF98D
S315080051800A20FEF745FB4FF0010820780028D5D005
S315080051900528D5D36846FBF7CFFE70B9DDE90001CF
S315080051A0FBF776FD40F26871C2F20001086040F232
S315080051B06470C2F20000C0F8008084F800B0C5E749
S315080051C080B582B045F2AC0C44F6E100C2F2000CA0
S315080051D04FF0000EC0F600001BA180220023CDE987
S315080051E000EC00F0CFFB411C1ED0012824D1502032
S315080051F080F31188BFF34F8FBFF36F8F45F2B0006E
S31508005200C2F200004FF0FF31016045F2D800C2F249
S3150800521000000121016045F20C10C2F200000021D5
S31508005220016000F0A9F807E046F63E70C0F60000F7
S315080052304FF40261FBF7F8FC46F65870C0F600001A
S31508005240006802B080BD00BF49444C45000000001C
S3150800525044F65050C2F200000168013101607047FF
S3150800526044F65050C2F20000006830B145F2101002
S31508005270C2F2000001210160704770B545F21010B6
S31508005280C2F20000002141F210040160C2F20004DB
S31508005290206800682168096B884204D8206821685C
S315080052A03431FFF7EFFC44F65850C2F200000068AC
S315080052B041F22006B0FA80F0C0F11F0000EB80052D
S315080052C0C2F2000656F8250038B946F63E70C0F612
S315080052D0000040F63341FBF7A7FC06EB85010846BC
S315080052E050F8042F5268031D9A42026001D1C9681A
S315080052F001600068C068206070BD0000FBF744FCD0
S315080053006420FFF7D5FDF9E770B582B0054640F68B
S31508005310004444F20000C4F20104C1F20300019003
S3150800532001A92046FBF7F2FE082612E020464FF4B4
S315080053308041FBF791FF0120FBF7CEFE20460221B4
S31508005340FBF78CFF0120FBF7C7FE013E4FEA550528
S315080053500BD020460221FBF77FFFE807E6D0204660
S315080053604FF48041FBF77AFFE5E720460221FBF779
S3150800537073FF02B070BD0000B0B584B04EF20044B1
S315080053800020CEF200040290207844F640518DF8B1
S315080053900F00FF2020702078C2F200018DF8070068
S315080053A09DF8070010F05000087007D146F6E76030
S315080053B0C0F600004FF49171FBF736FC9DF8070024
S315080053C000F05000502807D046F6E760C0F6000007
S315080053D04FF49371FBF728FC9DF90700B0F1FF3FE6
S315080053E00CDC00BF0298013002909DF807004000CF
S315080053F08DF807009DF907000028F3D402980025C8
S3150800540008284FF0000006D002984FF4E061A1EB9F
S31508005410002000F4E06044F64451C2F2000108603E
S315080054209DF80F002070D4F8200940F47F00C4F8D6
S315080054302009D4F8200940F07F40C4F82009FFF776
S3150800544021FD40F20C00C2F200000560FFF784FA65
S31508005450002004B0B0BD0000B0B54820FFF7DEFA62
S315080054604FF0000448B1054600600120C5E90F0465
S315080054702846012100F00EF82C464CB10020206089
S31508005480C4E90200204600210022002300F056F855
S315080054902046B0BD70B528B30546C06B50B30E465E
S315080054A0296C0024A0FB010129BBFFF73DFC2868F5
S315080054B0D5E90F12AC6302FB0103013901FB0201B6
S315080054C0C5E90103FF20E96085F8440085F8450031
S315080054D005F11000DEB1FFF7F9FB05F12400FFF72F
S315080054E0F5FB24E046F62770C0F600004FF49771E6
S315080054F0FBF79AFB0024012038B146F62770C0F660
S31508005500000040F26311FBF78FFB204670BD01686F
